{
  "_format": "hh-sol-artifact-1",
  "contractName": "AutoAccessManager",
  "sourceName": "contracts/AutoAccessManager.sol",
  "abi": [
    {
      "inputs": [
        {
          "internalType": "address",
          "name": "_datasetRegistry",
          "type": "address"
        },
        {
          "internalType": "address",
          "name": "_provenanceManager",
          "type": "address"
        }
      ],
      "stateMutability": "nonpayable",
      "type": "constructor"
    },
    {
      "anonymous": false,
      "inputs": [
        {
          "indexed": true,
          "internalType": "string",
          "name": "datasetId",
          "type": "string"
        },
        {
          "indexed": true,
          "internalType": "address",
          "name": "user",
          "type": "address"
        },
        {
          "indexed": false,
          "internalType": "string",
          "name": "reason",
          "type": "string"
        }
      ],
      "name": "AccessDenied",
      "type": "event"
    },
    {
      "anonymous": false,
      "inputs": [
        {
          "indexed": true,
          "internalType": "string",
          "name": "datasetId",
          "type": "string"
        },
        {
          "indexed": false,
          "internalType": "uint256",
          "name": "maxDuration",
          "type": "uint256"
        },
        {
          "indexed": false,
          "internalType": "uint256",
          "name": "maxUsers",
          "type": "uint256"
        }
      ],
      "name": "AccessRuleCreated",
      "type": "event"
    },
    {
      "anonymous": false,
      "inputs": [
        {
          "indexed": true,
          "internalType": "string",
          "name": "datasetId",
          "type": "string"
        },
        {
          "indexed": true,
          "internalType": "address",
          "name": "user",
          "type": "address"
        },
        {
          "indexed": false,
          "internalType": "string",
          "name": "purpose",
          "type": "string"
        },
        {
          "indexed": false,
          "internalType": "uint256",
          "name": "duration",
          "type": "uint256"
        }
      ],
      "name": "AutoAccessGranted",
      "type": "event"
    },
    {
      "anonymous": false,
      "inputs": [
        {
          "indexed": true,
          "internalType": "bytes32",
          "name": "role",
          "type": "bytes32"
        },
        {
          "indexed": true,
          "internalType": "bytes32",
          "name": "previousAdminRole",
          "type": "bytes32"
        },
        {
          "indexed": true,
          "internalType": "bytes32",
          "name": "newAdminRole",
          "type": "bytes32"
        }
      ],
      "name": "RoleAdminChanged",
      "type": "event"
    },
    {
      "anonymous": false,
      "inputs": [
        {
          "indexed": true,
          "internalType": "bytes32",
          "name": "role",
          "type": "bytes32"
        },
        {
          "indexed": true,
          "internalType": "address",
          "name": "account",
          "type": "address"
        },
        {
          "indexed": true,
          "internalType": "address",
          "name": "sender",
          "type": "address"
        }
      ],
      "name": "RoleGranted",
      "type": "event"
    },
    {
      "anonymous": false,
      "inputs": [
        {
          "indexed": true,
          "internalType": "bytes32",
          "name": "role",
          "type": "bytes32"
        },
        {
          "indexed": true,
          "internalType": "address",
          "name": "account",
          "type": "address"
        },
        {
          "indexed": true,
          "internalType": "address",
          "name": "sender",
          "type": "address"
        }
      ],
      "name": "RoleRevoked",
      "type": "event"
    },
    {
      "anonymous": false,
      "inputs": [
        {
          "indexed": true,
          "internalType": "address",
          "name": "user",
          "type": "address"
        },
        {
          "indexed": false,
          "internalType": "string",
          "name": "institution",
          "type": "string"
        }
      ],
      "name": "UserVerified",
      "type": "event"
    },
    {
      "inputs": [],
      "name": "ADMIN_ROLE",
      "outputs": [
        {
          "internalType": "bytes32",
          "name": "",
          "type": "bytes32"
        }
      ],
      "stateMutability": "view",
      "type": "function"
    },
    {
      "inputs": [],
      "name": "DATASET_OWNER_ROLE",
      "outputs": [
        {
          "internalType": "bytes32",
          "name": "",
          "type": "bytes32"
        }
      ],
      "stateMutability": "view",
      "type": "function"
    },
    {
      "inputs": [],
      "name": "DEFAULT_ADMIN_ROLE",
      "outputs": [
        {
          "internalType": "bytes32",
          "name": "",
          "type": "bytes32"
        }
      ],
      "stateMutability": "view",
      "type": "function"
    },
    {
      "inputs": [
        {
          "internalType": "string",
          "name": "",
          "type": "string"
        }
      ],
      "name": "accessRules",
      "outputs": [
        {
          "internalType": "bool",
          "name": "isActive",
          "type": "bool"
        },
        {
          "internalType": "uint256",
          "name": "maxDuration",
          "type": "uint256"
        },
        {
          "internalType": "uint256",
          "name": "maxUsers",
          "type": "uint256"
        },
        {
          "internalType": "uint256",
          "name": "currentUsers",
          "type": "uint256"
        },
        {
          "internalType": "bool",
          "name": "requiresVerification",
          "type": "bool"
        },
        {
          "internalType": "uint256",
          "name": "minReputation",
          "type": "uint256"
        }
      ],
      "stateMutability": "view",
      "type": "function"
    },
    {
      "inputs": [
        {
          "internalType": "string",
          "name": "",
          "type": "string"
        },
        {
          "internalType": "string",
          "name": "",
          "type": "string"
        }
      ],
      "name": "allowedPurposes",
      "outputs": [
        {
          "internalType": "bool",
          "name": "",
          "type": "bool"
        }
      ],
      "stateMutability": "view",
      "type": "function"
    },
    {
      "inputs": [
        {
          "internalType": "string",
          "name": "datasetId",
          "type": "string"
        },
        {
          "internalType": "address[]",
          "name": "users",
          "type": "address[]"
        },
        {
          "internalType": "string",
          "name": "purpose",
          "type": "string"
        }
      ],
      "name": "batchAutoAccess",
      "outputs": [],
      "stateMutability": "nonpayable",
      "type": "function"
    },
    {
      "inputs": [
        {
          "internalType": "string",
          "name": "datasetId",
          "type": "string"
        },
        {
          "internalType": "address",
          "name": "user",
          "type": "address"
        },
        {
          "internalType": "string",
          "name": "purpose",
          "type": "string"
        }
      ],
      "name": "canAutoAccess",
      "outputs": [
        {
          "internalType": "bool",
          "name": "",
          "type": "bool"
        },
        {
          "internalType": "string",
          "name": "reason",
          "type": "string"
        }
      ],
      "stateMutability": "view",
      "type": "function"
    },
    {
      "inputs": [
        {
          "internalType": "string",
          "name": "datasetId",
          "type": "string"
        },
        {
          "internalType": "uint256",
          "name": "maxDuration",
          "type": "uint256"
        },
        {
          "internalType": "uint256",
          "name": "maxUsers",
          "type": "uint256"
        },
        {
          "internalType": "string[]",
          "name": "allowedPurposesList",
          "type": "string[]"
        },
        {
          "internalType": "bool",
          "name": "requiresVerification",
          "type": "bool"
        },
        {
          "internalType": "uint256",
          "name": "minReputation",
          "type": "uint256"
        }
      ],
      "name": "createAccessRule",
      "outputs": [],
      "stateMutability": "nonpayable",
      "type": "function"
    },
    {
      "inputs": [
        {
          "internalType": "string",
          "name": "datasetId",
          "type": "string"
        },
        {
          "internalType": "uint256",
          "name": "startTime",
          "type": "uint256"
        },
        {
          "internalType": "uint256",
          "name": "endTime",
          "type": "uint256"
        },
        {
          "internalType": "string",
          "name": "purpose",
          "type": "string"
        }
      ],
      "name": "createTimedAccess",
      "outputs": [],
      "stateMutability": "nonpayable",
      "type": "function"
    },
    {
      "inputs": [],
      "name": "datasetRegistry",
      "outputs": [
        {
          "internalType": "contract DatasetRegistry",
          "name": "",
          "type": "address"
        }
      ],
      "stateMutability": "view",
      "type": "function"
    },
    {
      "inputs": [
        {
          "internalType": "string",
          "name": "datasetId",
          "type": "string"
        }
      ],
      "name": "disableAutoAccess",
      "outputs": [],
      "stateMutability": "nonpayable",
      "type": "function"
    },
    {
      "inputs": [
        {
          "internalType": "bytes32",
          "name": "role",
          "type": "bytes32"
        }
      ],
      "name": "getRoleAdmin",
      "outputs": [
        {
          "internalType": "bytes32",
          "name": "",
          "type": "bytes32"
        }
      ],
      "stateMutability": "view",
      "type": "function"
    },
    {
      "inputs": [
        {
          "internalType": "address",
          "name": "user",
          "type": "address"
        }
      ],
      "name": "getUserProfile",
      "outputs": [
        {
          "internalType": "bool",
          "name": "isVerified",
          "type": "bool"
        },
        {
          "internalType": "uint256",
          "name": "reputation",
          "type": "uint256"
        },
        {
          "internalType": "string",
          "name": "institution",
          "type": "string"
        }
      ],
      "stateMutability": "view",
      "type": "function"
    },
    {
      "inputs": [
        {
          "internalType": "bytes32",
          "name": "role",
          "type": "bytes32"
        },
        {
          "internalType": "address",
          "name": "account",
          "type": "address"
        }
      ],
      "name": "grantRole",
      "outputs": [],
      "stateMutability": "nonpayable",
      "type": "function"
    },
    {
      "inputs": [
        {
          "internalType": "bytes32",
          "name": "role",
          "type": "bytes32"
        },
        {
          "internalType": "address",
          "name": "account",
          "type": "address"
        }
      ],
      "name": "hasRole",
      "outputs": [
        {
          "internalType": "bool",
          "name": "",
          "type": "bool"
        }
      ],
      "stateMutability": "view",
      "type": "function"
    },
    {
      "inputs": [],
      "name": "provenanceManager",
      "outputs": [
        {
          "internalType": "contract ProvenanceManager",
          "name": "",
          "type": "address"
        }
      ],
      "stateMutability": "view",
      "type": "function"
    },
    {
      "inputs": [
        {
          "internalType": "bytes32",
          "name": "role",
          "type": "bytes32"
        },
        {
          "internalType": "address",
          "name": "account",
          "type": "address"
        }
      ],
      "name": "renounceRole",
      "outputs": [],
      "stateMutability": "nonpayable",
      "type": "function"
    },
    {
      "inputs": [
        {
          "internalType": "string",
          "name": "datasetId",
          "type": "string"
        },
        {
          "internalType": "string",
          "name": "purpose",
          "type": "string"
        }
      ],
      "name": "requestAutoAccess",
      "outputs": [],
      "stateMutability": "nonpayable",
      "type": "function"
    },
    {
      "inputs": [
        {
          "internalType": "bytes32",
          "name": "role",
          "type": "bytes32"
        },
        {
          "internalType": "address",
          "name": "account",
          "type": "address"
        }
      ],
      "name": "revokeRole",
      "outputs": [],
      "stateMutability": "nonpayable",
      "type": "function"
    },
    {
      "inputs": [
        {
          "internalType": "address",
          "name": "user",
          "type": "address"
        },
        {
          "internalType": "string[]",
          "name": "purposes",
          "type": "string[]"
        }
      ],
      "name": "setUserPurposes",
      "outputs": [],
      "stateMutability": "nonpayable",
      "type": "function"
    },
    {
      "inputs": [
        {
          "internalType": "bytes4",
          "name": "interfaceId",
          "type": "bytes4"
        }
      ],
      "name": "supportsInterface",
      "outputs": [
        {
          "internalType": "bool",
          "name": "",
          "type": "bool"
        }
      ],
      "stateMutability": "view",
      "type": "function"
    },
    {
      "inputs": [
        {
          "internalType": "address",
          "name": "",
          "type": "address"
        }
      ],
      "name": "userProfiles",
      "outputs": [
        {
          "internalType": "bool",
          "name": "isVerified",
          "type": "bool"
        },
        {
          "internalType": "uint256",
          "name": "reputation",
          "type": "uint256"
        },
        {
          "internalType": "string",
          "name": "institution",
          "type": "string"
        }
      ],
      "stateMutability": "view",
      "type": "function"
    },
    {
      "inputs": [
        {
          "internalType": "address[]",
          "name": "users",
          "type": "address[]"
        },
        {
          "internalType": "string",
          "name": "institution",
          "type": "string"
        },
        {
          "internalType": "uint256",
          "name": "baseReputation",
          "type": "uint256"
        }
      ],
      "name": "verifyInstitution",
      "outputs": [],
      "stateMutability": "nonpayable",
      "type": "function"
    },
    {
      "inputs": [
        {
          "internalType": "address",
          "name": "user",
          "type": "address"
        },
        {
          "internalType": "string",
          "name": "institution",
          "type": "string"
        },
        {
          "internalType": "uint256",
          "name": "reputation",
          "type": "uint256"
        },
        {
          "internalType": "string[]",
          "name": "previousWork",
          "type": "string[]"
        }
      ],
      "name": "verifyUser",
      "outputs": [],
      "stateMutability": "nonpayable",
      "type": "function"
    }
  ],
  "bytecode": "0x60c03461018857601f61267338819003918201601f19168301916001600160401b0383118484101761018d57808492604094855283398101031261018857610052602061004b836101a3565b92016101a3565b6001600160a01b039182166080521660a052336000908152600080516020612653833981519152602052604090205460ff1615610148575b336000908152600080516020612633833981519152602052604090205460ff16156100e6575b60405161245b90816101b882396080518181816108f4015281816112f7015261161b015260a05181818161178f01526120ce0152f35b33600081815260008051602061263383398151915260205260408120805460ff1916600117905581907fa49807205ce4d355092ef5a8a18f56e8913cf4a201fbe287825b095693c21775906000805160206126138339815191529080a46100b0565b33600081815260008051602061265383398151915260205260408120805460ff1916600117905581906000805160206126138339815191528180a461008a565b600080fd5b634e487b7160e01b600052604160045260246000fd5b51906001600160a01b03821682036101885756fe608080604052600436101561001357600080fd5b600090813560e01c90816301ffc9a7146117be575080630db0a4411461177957806319791ac71461173e578063248a9ca3146117085780632f2ff15d1461164a5780633235ad1314611605578063332d56d71461060a57806335ff4be51461158057806336568abe146114ed57806340df1ad014611223578063561db8a914610e8d57806360943e3114610e2857806375b238fc14610ded578063816af40b14610abc57806383f526e1146107e657806391d148541461079b57806395426ece146106f557806397b34bab14610661578063987ee1561461060a578063a217fddf146105ee578063c137f57d14610498578063cab51da114610213578063d547741f146101ca5763fa886b6e1461012957600080fd5b346101c75760203660031901126101c757600435906001600160401b0382116101c75760c061017360206101603660048701611a71565b8160405193828580945193849201611959565b8101600181520301902060ff815416906001810154906002810154600382015490600660ff6005850154169301549360405195151586526020860152604085015260608401521515608083015260a0820152f35b80fd5b50346101c75760403660031901126101c7576102106004356101ea611813565b9061020b61020682600052600060205260016040600020015490565b611f9f565b611fdd565b80f35b50346101c75760603660031901126101c7576004356001600160401b038111610494576102449036906004016119ef565b6024356001600160401b0381116104905791610265849336906004016119c2565b9060443592610272611e86565b601f8311946001600160401b03841194875b82811061028f578880f35b6001600160a01b036102aa6102a5838688611e4e565b611e5e565b168952600260205260408920600160ff1982541617815587600282019061047c576102d58154611844565b601f8111610441575b50878b8c8c6001146103d35792610314836004946001989794602f97916103c8575b508160011b916000199060031b1c19161790565b90555b8585820155016031604051700c2c6c2c8cadad2c65ae4cae6cac2e4c6d607b1b8152826011820152208460ff19825416179055604051906e656475636174696f6e616c2d75736560881b8252600f820152208260ff19825416179055818060a01b036103876102a5838789611e4e565b167fb9a56ef3335a4b13b2aa51519b56125ab2316b50d587ad80edfce74fe9a4b7d360405160208152806103bf602082018c8c611d05565b0390a201610284565b90508c013538610300565b91601f19811684845260208420935b8b828210610427575050926001969592602f95926004951061040d575b5050858b811b019055610317565b8b013560001960038e901b60f8161c191690558e806103ff565b84013585556001909401936020938401938d9350016103e2565b61046c90828d5260208d20601f8b0160051c81019160208c10610472575b601f0160051c0190611d4b565b8b6102de565b909150819061045f565b634e487b7160e01b8b52604160045260248bfd5b8380fd5b5080fd5b50346101c75760803660031901126101c7576004356001600160401b038111610494576104c99036906004016119c2565b604492919235906064356001600160401b038111610490576104ef9036906004016119c2565b91909261050e6105093361050436868b611a3a565b6120a1565b611d94565b602435421015806105e4575b156105aa5760405182878237602081848101600181520301902090600160ff198354161782554281039081116105965795856006836105889899600160209601558260028201556005810160ff19815416905501558260405193849283378101600381520301902091611a8c565b805460ff1916600117905580f35b634e487b7160e01b86526011600452602486fd5b60405162461bcd60e51b81526020600482015260126024820152714e6f7420696e2074696d652077696e646f7760701b6044820152606490fd5b508042111561051a565b50346101c757806003193601126101c757602090604051908152f35b50346101c75760203660031901126101c7576040906001600160a01b0361062f61182e565b16815260026020522060ff81541661065d6106516002600185015494016118b5565b604051938493846119a1565b0390f35b50346101c75760403660031901126101c75761067b61182e565b6024356001600160401b0381116106f15761069a9036906004016119ef565b90916106a4611e86565b6001600160a01b0316835260026020526040832060040190835b8181106106c9578480f35b806106e1846106db6001948689611dd4565b90611a8c565b805460ff191683179055016106be565b8280fd5b50346101c75760403660031901126101c7576004356001600160401b03811161049457610726903690600401611a71565b6024356001600160401b0381116106f157602060ff92819461076783610753610786963690600401611a71565b938160405193828580945193849201611959565b8101600381520301902090508260405194838680955193849201611959565b82019081520301902054166040519015158152f35b50346101c75760403660031901126101c75760406107b7611813565b91600435815280602052209060018060a01b0316600052602052602060ff604060002054166040519015158152f35b50346101c75760603660031901126101c7576004356001600160401b038111610494576108179036906004016119c2565b906024356001600160401b038111610490576108379036906004016119ef565b929091604435926001600160401b038411610ab8576108b060ff6108626108a99636906004016119c2565b969061086c611e86565b6040518787823760208189810160018152030190209761088e848a5416611c81565b604051888882376020818a8101600381520301902091611a8c565b5416611cc3565b6108b985611e1c565b908695879160ff60058801541615928315905b838110610a255750505050506108e185611e1c565b90865b8681106109fd57505060018401547f00000000000000000000000000000000000000000000000000000000000000006001600160a01b031692833b156109f957604051632b52f64760e21b8152606060048201528895909493929161094d916064870191611d05565b60031985820301602486015260208084519283815201930190865b8181106109d7575050509183858180948296604483015203925af180156109cc576109b7575b505060030180549182018092116109a3575580f35b634e487b7160e01b83526011600452602483fd5b816109c19161187e565b6106f157823861098e565b6040513d84823e3d90fd5b82516001600160a01b031685528a975060209485019490920191600101610968565b8780fd5b6001906001600160a01b03610a128285611e72565b5116610a1e8286611e72565b52016108e4565b6001600160a01b03610a3b6102a5838787611e4e565b168b5260026020528160408c208691610aac575b81610a99575b50610a63575b6001016108cc565b98610a91600191610a786102a58d8888611e4e565b610a82828a611e72565b90848060a01b03169052611d26565b999050610a5b565b60019150015460068a0154111538610a55565b805460ff169150610a4f565b8580fd5b50346101c75760c03660031901126101c7576004356001600160401b03811161049457610aed9036906004016119c2565b60243590604435926064356001600160401b038111610ab857610b149036906004016119ef565b906084358015158091036109f957600490610b3761050933610504368a8a611a3a565b60405186868237602081888101600181520301902090600160ff19835416178255876001830155886002830155600582019060ff8019835416911617905560a435600682015501600160401b8311610dd9578054838255808410610d5f575b5087526020872087825b848210610c3257505050865b828110610bfc57505050916040917fdce3943e41c31b1220e0f9abe17d052793a9ddf9a48630abdda5c88caca076949381845192839283378101600081520390209382519182526020820152a280f35b600190610c226040518787823760208189810160038152030190206106db838787611dd4565b805460ff19168317905501610bac565b610c3c8185611d62565b906001600160401b038211610d4b578b610c568654611844565b601f8111610d1b575b50908c601f8411600114610cb1578360019592946020948796610c979492610ca6575b50508160011b916000199060031b1c19161790565b86555b01930191019091610ba0565b013590503880610c82565b91601f19841687845260208420935b818110610d035750936020936001969387969383889510610ce9575b505050811b018655610c9a565b0135600019600384901b60f8161c19169055388080610cdc565b91936020600181928787013581550195019201610cc0565b60208288610d44945220601f850160051c8101916020861061047257601f0160051c0190611d4b565b8b38610c5f565b634e487b7160e01b8c52604160045260248cfd5b8189528360208a2091820191015b818110610d7a5750610b96565b808a610d8860019354611844565b80610d96575b505001610d6d565b601f81118414610dad5750508a81555b8a38610d8e565b83601f60208486610dc8965220920160051c82019101611d4b565b808b528a6020812081835555610da6565b634e487b7160e01b88526041600452602488fd5b50346101c757806003193601126101c75760206040517fa49807205ce4d355092ef5a8a18f56e8913cf4a201fbe287825b095693c217758152f35b50346101c75760203660031901126101c7576004356001600160401b03811161049457610e5b60209136906004016119c2565b9190610e6f61050933610504368786611a3a565b8260405193849283378101600181520301902060ff19815416905580f35b50346101c75760803660031901126101c757610ea761182e565b6024356001600160401b0381116106f157610ec69036906004016119c2565b91906064356001600160401b03811161121f57610ee79036906004016119ef565b939092610ef2611e86565b60018060a01b031692838652600260205260408620600160ff19825416178155604435600182015560028101906001600160401b038411610dd957610f378254611844565b601f81116111ef575b50879184601f81116001146111885780610f71916003958c9161117d57508160011b916000199060031b1c19161790565b90555b01600160401b86116111695780548682558087106110ef575b508652602086208691805b878410610fe15788877fb9a56ef3335a4b13b2aa51519b56125ab2316b50d587ad80edfce74fe9a4b7d38888610fdb604051928392602084526020840191611d05565b0390a280f35b610feb8183611d62565b906001600160401b03821161047c576110048554611844565b601f81116110bf575b508a908b601f84116001146110545783600195929460209487966110459492610ca65750508160011b916000199060031b1c19161790565b86555b01930193019291610f98565b50858c5260208c2091601f1984168d5b8181106110a7575093602093600196938796938388951061108d575b505050811b018655611048565b0135600019600384901b60f8161c19169055388080611080565b91936020600181928787013581550195019201611064565b6110e990868d5260208d20601f850160051c8101916020861061047257601f0160051c0190611d4b565b3861100d565b818852866020892091820191015b81811061110a5750610f8d565b808961111860019354611844565b80611126575b5050016110fd565b601f8111841461113d5750508981555b893861111e565b83601f60208486611158965220920160051c82019101611d4b565b808a52896020812081835555611136565b634e487b7160e01b87526041600452602487fd5b905088013538610300565b5080895260208920899386601f1981165b8087106111d15760039650106111b9575b5050600185811b019055610f74565b87013560001987861b60f8161c1916905538806111aa565b89830135845560209687019660019094019390920191889150611199565b61121990838a5260208a20601f870160051c8101916020881061047257601f0160051c0190611d4b565b38610f40565b8480fd5b50346101c75760403660031901126101c7576004356001600160401b038111610494576112549036906004016119c2565b6024356001600160401b038111610490576112739036906004016119c2565b90916040518185823760208183810160018152030190209361129860ff865416611c81565b6112bc60ff6108a96040518585823760208187810160038152030190208688611a8c565b6002850154806114a2575b5033865260026020526040862060ff600587015416611460575b60010154600686015411611421576001850154947f00000000000000000000000000000000000000000000000000000000000000006001600160a01b0316803b156109f95787604051809263e5492e2b60e01b82526060600483015281838161134e606482018b8b611d05565b3360248301528d604483015203925af18015611416576113d5575b50916113c69160037fce8058fd46ef5d350551ae58fb4a54a992e3684047b4536ea71c74d452a5a4c595940161139f8154611d26565b90558160405192839283378101600081520390209360405192604084526040840191611d05565b9360208201528033940390a380f35b9160038861140a7fce8058fd46ef5d350551ae58fb4a54a992e3684047b4536ea71c74d452a5a4c59796949a6113c69661187e565b98929495505091611369565b6040513d8a823e3d90fd5b60405162461bcd60e51b815260206004820152601760248201527624b739bab33334b1b4b2b73a103932b83aba30ba34b7b760491b6044820152606490fd5b60ff8154166112e15760405162461bcd60e51b8152602060048201526011602482015270155cd95c881b9bdd081d995c9a599a5959607a1b6044820152606490fd5b600386015410156114b357386112c7565b60405162461bcd60e51b8152602060048201526012602482015271155cd95c881b1a5b5a5d081c995858da195960721b6044820152606490fd5b50346101c75760403660031901126101c757611507611813565b336001600160a01b038216036115235761021090600435611fdd565b60405162461bcd60e51b815260206004820152602f60248201527f416363657373436f6e74726f6c3a2063616e206f6e6c792072656e6f756e636560448201526e103937b632b9903337b91039b2b63360891b6064820152608490fd5b50346101c75760603660031901126101c7576004356001600160401b038111610494576115b19036906004016119c2565b906115ba611813565b604435936001600160401b0385116101c757506115de6115e69436906004016119c2565b939092611aa5565b9061065d6040519283921515835260406020840152604083019061197c565b50346101c757806003193601126101c7576040517f00000000000000000000000000000000000000000000000000000000000000006001600160a01b03168152602090f35b50346101c75760403660031901126101c757600435611667611813565b9061168361020682600052600060205260016040600020015490565b808352602083815260408085206001600160a01b038516865290915283205460ff16156116ae578280f35b808352602083815260408085206001600160a01b0394909416808652939091528320805460ff191660011790553391907f2f8788117e7eff1d82e926ec794901d17c78024a50270940304540a733656f0d8480a438808280f35b50346101c75760203660031901126101c7576020611736600435600052600060205260016040600020015490565b604051908152f35b50346101c757806003193601126101c75760206040517fb8ffe71ee0274ebc604b3993b66a1e17d62bd439404cd5fba5a45c3c6c8a5a848152f35b50346101c757806003193601126101c7576040517f00000000000000000000000000000000000000000000000000000000000000006001600160a01b03168152602090f35b9050346104945760203660031901126104945760043563ffffffff60e01b81168091036106f15760209250637965db0b60e01b8114908115611802575b5015158152f35b6301ffc9a760e01b149050386117fb565b602435906001600160a01b038216820361182957565b600080fd5b600435906001600160a01b038216820361182957565b90600182811c92168015611874575b602083101461185e57565b634e487b7160e01b600052602260045260246000fd5b91607f1691611853565b90601f801991011681019081106001600160401b0382111761189f57604052565b634e487b7160e01b600052604160045260246000fd5b90604051918260008254926118c984611844565b808452936001811690811561193757506001146118f0575b506118ee9250038361187e565b565b90506000929192526020600020906000915b81831061191b5750509060206118ee92820101386118e1565b6020919350806001915483858901015201910190918492611902565b9050602092506118ee94915060ff191682840152151560051b820101386118e1565b60005b83811061196c5750506000910152565b818101518382015260200161195c565b9060209161199581518092818552858086019101611959565b601f01601f1916010190565b6119bf9392606092151582526020820152816040820152019061197c565b90565b9181601f84011215611829578235916001600160401b038311611829576020838186019501011161182957565b9181601f84011215611829578235916001600160401b038311611829576020808501948460051b01011161182957565b6001600160401b03811161189f57601f01601f191660200190565b929192611a4682611a1f565b91611a54604051938461187e565b829481845281830111611829578281602093846000960137010152565b9080601f83011215611829578160206119bf93359101611a3a565b6020919283604051948593843782019081520301902090565b9091926040518383823760208185810160018152030190209460ff86541615611c4757836020611aea9460ff9660405193849283378101600381520301902091611a8c565b541615611c115760028201548015159081611c02575b50611bcd576001600160a01b03166000908152600260205260409020600582015460ff1680611bc1575b611b8d576001600691015491015411611b5557600190604051611b4e60208261187e565b6000815290565b600090604051611b6660408261187e565b601781527624b739bab33334b1b4b2b73a103932b83aba30ba34b7b760491b602082015290565b5050600090604051611ba060408261187e565b6011815270155cd95c881b9bdd081d995c9a599a5959607a1b602082015290565b5060ff81541615611b2a565b5050600090604051611be060408261187e565b6012815271155cd95c881b1a5b5a5d081c995858da195960721b602082015290565b90506003830154101538611b00565b5050600090604051611c2460408261187e565b6013815272141d5c9c1bdcd9481b9bdd08185b1b1bddd959606a1b602082015290565b505050505050600090604051611c5e60408261187e565b60138152724e6f206175746f2d6163636573732072756c6560681b602082015290565b15611c8857565b60405162461bcd60e51b81526020600482015260136024820152724e6f206175746f2d6163636573732072756c6560681b6044820152606490fd5b15611cca57565b60405162461bcd60e51b8152602060048201526013602482015272141d5c9c1bdcd9481b9bdd08185b1b1bddd959606a1b6044820152606490fd5b908060209392818452848401376000828201840152601f01601f1916010190565b6000198114611d355760010190565b634e487b7160e01b600052601160045260246000fd5b818110611d56575050565b60008155600101611d4b565b903590601e198136030182121561182957018035906001600160401b0382116118295760200191813603831361182957565b15611d9b57565b60405162461bcd60e51b81526020600482015260116024820152702737ba103230ba30b9b2ba1037bbb732b960791b6044820152606490fd5b90821015611def57611deb9160051b810190611d62565b9091565b634e487b7160e01b600052603260045260246000fd5b6001600160401b03811161189f5760051b60200190565b90611e2682611e05565b611e33604051918261187e565b8281528092611e44601f1991611e05565b0190602036910137565b9190811015611def5760051b0190565b356001600160a01b03811681036118295790565b8051821015611def5760209160051b010190565b3360009081527f7d7ffb7a348e1c6a02869081a26547b49160dd3df72d1d75a570eb9b698292ec602052604090205460ff1615611ebf57565b611f9b611ecb33612239565b611f7b6011611ef97fa49807205ce4d355092ef5a8a18f56e8913cf4a201fbe287825b095693c21775612379565b9260376040519485927f416363657373436f6e74726f6c3a206163636f756e74200000000000000000006020850152611f3b8151809260208688019101611959565b83017001034b99036b4b9b9b4b733903937b6329607d1b83820152611f6a825180936020604885019101611959565b01010301601f19810183528261187e565b60405162461bcd60e51b815260206004820152918291602483019061197c565b0390fd5b60008181526020818152604080832033845290915290205460ff1615611fc25750565b611f9b90611f7b6011611ef9611fd733612239565b93612379565b6000818152602081815260408083206001600160a01b038616845290915290205460ff16612009575050565b6000818152602081815260408083206001600160a01b0395909516808452949091528120805460ff19169055339291907ff6391f5c32d9c69d2a47ea670b442974b53935d1edc7fd64eb21e047a839171b9080a4565b81601f8201121561182957805161207581611a1f565b92612083604051948561187e565b81845260208284010111611829576119bf9160208085019101611959565b9060006120ca9260405180948192637bb6739b60e11b835260206004840152602483019061197c565b03817f00000000000000000000000000000000000000000000000000000000000000006001600160a01b03165afa91821561221c57600092612119575b506001600160a01b0391821691161490565b90913d8082843e61212a818461187e565b8201916101c0818403126104945780516001600160401b0381116106f1578361215491830161205f565b5060208101516001600160401b0381116106f1578361217491830161205f565b506040810151926001600160a01b03841684036106f15760a08201516001600160401b03811161049057816121aa91840161205f565b5060c08201516001600160401b03811161049057816121ca91840161205f565b5060e08201516001600160401b03811161049057906121ea91830161205f565b50600561010082015110156104945760056101208201511015610494576101a00151801515036101c757509038612107565b6040513d6000823e3d90fd5b908151811015611def570160200190565b600090612246602a611a1f565b91612254604051938461187e565b602a8352612262602a611a1f565b6020840190601f19013682378351156123655760309053825160011015612351576078602184015350602960005b600182116122e55750506122a15790565b606460405162461bcd60e51b815260206004820152602060248201527f537472696e67733a20686578206c656e67746820696e73756666696369656e746044820152fd5b9091600f8116601081101561233d576f181899199a1a9b1b9c1cb0b131b232b360811b901a6123148486612228565b5360041c918015612329576000190190612290565b634e487b7160e01b82526011600452602482fd5b634e487b7160e01b83526032600452602483fd5b634e487b7160e01b81526032600452602490fd5b634e487b7160e01b82526032600452602482fd5b6000906123866042611a1f565b91612394604051938461187e565b604283526123a26042611a1f565b6020840190601f19013682378351156123655760309053825160011015612351576078602184015350604160005b600182116123e15750506122a15790565b9091600f8116601081101561233d576f181899199a1a9b1b9c1cb0b131b232b360811b901a6124108486612228565b5360041c9180156123295760001901906123d056fea2646970667358221220ba5967d5bc2bcd8a9603ee656e7a2d4371fcb9653eeaacba636d94cefc45903064736f6c634300081c00332f8788117e7eff1d82e926ec794901d17c78024a50270940304540a733656f0d7d7ffb7a348e1c6a02869081a26547b49160dd3df72d1d75a570eb9b698292ecad3228b676f7d3cd4284a5443f17f1962b36e491b30a40b2405849e597ba5fb5",
  "linkReferences": {},
  "deployedLinkReferences": {}
}